:100000000C942A001895000018950000189500001F
:10001000189500001895000018950000189500002C
:10002000189500001895000018950000189500001C
:10003000189500001895000018950000189500000C
:1000400018950000189500001895000018950000FC
:10005000189500008FE58DBFCCEFECE44E2E88E0C4
:100060008EBFD7E0F7E05F2EA89584B7082E877F74
:1000700084BF88E1992781BD91BDEEEFF7E0A0E64E
:10008000B0E088278D933197E9F783E389B980E061
:1000900080BD88E18AB9662480ED8093680081ED97
:1000A0008093690089E1809361008BE08093620016
:1000B00083E190E0A3E6B0E08D939C9380E0809391
:1000C000650086E38093660082E18093670081E0AB
:1000D00080936000809165000E94BA01A5E6B0E0BF
:1000E0008C93809166000E94BA01A6E6B0E08C93E2
:1000F000809167000E94BA01A7E6B0E08C930E944D
:10010000F201109168000E940A0210E00E940A02A7
:10011000109165000E940A02109166000E940A0276
:10012000109167000E940A020E9401028091610002
:100130000E94BA01A1E6B0E08C93809162000E9417
:10014000BA01A2E6B0E08C93809163000E94BA01EC
:10015000A3E6B0E08D9388278C930E94F201109162
:1001600068000E940A0213E00E940A0210916000D7
:100170000E940A02109161000E940A02109162001E
:100180000E940A02109163000E940A020E9401026A
:100190000E94F201109168000E940A0210E00E9481
:1001A0000A020E94F201109169000E940A020E9454
:1001B0002902A5E6B0E01C930E942902A6E6B0E061
:1001C0001C930E942902A7E6B0E01C930E9429021A
:1001D000A0E6B0E01C930E942902A1E6B0E01C93C7
:1001E0000E942902A2E6B0E01C930E942702A3E627
:1001F000B0E01D9388278C930E94010288EE93E063
:100200000E94CA01E8E8F4E00E94A1010E94A8014E
:10021000E2EAF4E00E94A1010E94A8010E94F2011A
:10022000109168000E940A0210E00E940A020E94D7
:10023000F201109169000E940A020E942902A5E6BB
:10024000B0E01C930E942902A6E6B0E01C930E9435
:100250002902A7E6B0E01C930E942902A0E6B0E0C4
:100260001C930E942902A1E6B0E01C930E9429027F
:10027000A2E6B0E01C930E942702A3E6B0E01D9323
:1002800088278C930E94010280916000A4E3B7E06C
:100290000E94AF010E9499010E94A8018091610013
:1002A000A4E3B7E00E94AF010E949901EAECF4E0F8
:1002B0000E94A10180916200A4E3B7E00E94AF0117
:1002C0000E949901EAECF4E00E94A1018091630090
:1002D000A4E3B7E00E94AF010E9499010E94A80127
:1002E00080916700A4E3B7E00E94AF010E949901EA
:1002F000EAECF4E00E94A10180916600A4E3B7E07B
:100300000E94AF010E949901EAECF4E00E94A10171
:1003100080916500A4E3B7E00E94AF010E949901BB
:100320000E94A80188EE93E00E94CA010C94080183
:100330000895A4E3B7E08D91882311F00CD0FBCF92
:1003400008950E94D901802D11F005D0FACF0895AB
:100350008DE001D08AE05D9BFECF8CB90895982F87
:1003600082958F70805D8D939F70905D9D9388279F
:100370008C9308954AE0082F0E94DD010295802B9E
:1003800008953197F1F70895689462F80895E89414
:1003900062F80895EF93FF93EE27E82BE92B31F0F5
:1003A000E0EDF7E03197F1F70197D1F7FF91EF9189
:1003B0000895C895319600200895FF93881BF9E0B1
:1003C000001FFA9511F4FF910895881F841B18F4FB
:1003D000840F8894F5CF0894F3CFA198A098A9989A
:1003E000A8980895A09AA19803D0A09801D0A19AA6
:1003F000EF93FF93E6E0F0E00E94C101FF91EF91DF
:100400000895A09AA19AF4DFA098989BFECFF0DF00
:10041000A198EECF0894111F01C0110F69F0A09AA6
:1004200018F40000A19802C0A19A00C0E1DFA098D2
:10043000989BFECFDDDFF1CFA09AA198D9DFA098DD
:10044000989BFECFE8949999689462F8D1CF08946C
:1004500001C08894331F11E0A09AA198C9DFA09829
:10046000989BFECFC5DF889499990894111FA0F737
:10047000A09A379510F4A19801C0A19AB9DFA0986D
:10048000989BFECFB5DF08955568727A6569742030
:100490006973742065696E67657374656C6C74212B
:1004A00000002D2D2D2D2D2D2D2D2D2D2D2D2D2DD6
:1004B0002D2D2D2D2D2D2D2D2D2D2D2D2D2D2D2D6C
:0C04C0002D2D2D2D2D2D2D2D2D003A0061
:00000001FF
