:100000000C942A001895000018950000189500001F
:10001000189500001895000018950000189500002C
:10002000189500001895000018950000189500001C
:10003000189500001895000018950000189500000C
:1000400018950000189500001895000018950000FC
:10005000189500008FE58DBFCCEFECE44E2E88E0C4
:100060008EBFD7E0F7E05F2EA89584B7082E877F74
:1000700084BF88E1992781BD91BDEEEFF7E0A0E64E
:10008000B0E088278D933197E9F789E189B980E05D
:1000900080BD88E18AB96624D6988A988F9A8E9A0C
:1000A0008D9A8C9A8B9AD79AA39AA29ABA9ABB9A4B
:1000B000BC9A8CE00E94510A85E886B980EC87B929
:1000C00080ED80939E0081ED80939F00979A969A91
:1000D000959A949A939ADF9AAB9AAA9A0E94030AE5
:1000E0008CE00E94510A0E94E80983E916E00E9410
:1000F000F709E8E0FAE10E94E109C39A88EE93E08B
:100100000E94970AC398C29A88EE93E00E94970AC9
:10011000C298C49A88EE93E00E94970AC49888EE29
:1001200093E00E94970A0E945A080E94E8098FEB08
:1001300017E00E94F709E4E1FAE10E94E1090E9458
:100140005A08979A969A959A949A939AAA9A829B01
:100150000C94AC000E94DC00A9E3B0E00C9106FB1B
:1001600081E00EF080E08F93A0E3B0E00C9102FB01
:1001700081E00EF480E09F918923882311F40C9490
:10018000C3000E941E02A9E3B0E00C9106FB81E0CF
:100190000EF480E08F93A0E3B0E00C9102FB81E0CD
:1001A0000EF480E09F918923882311F40C94DA00E7
:1001B0000E9409040C949500939A949A959ADF9A58
:1001C000AA9AC49AC398C298969A979A0E94E809E4
:1001D000E1E0F0E00E94FA090E94030AE1E0F0E0A9
:1001E0000E94FA090E94E8098FE711E00E94F709CE
:1001F000EEE1FAE10E94E1090E94C305A0EAB0E045
:100200000D911C91003050E0150711F00C94100175
:100210008FEB11E00E94F709ECE2FAE10E94E1099C
:10022000A2EAB0E00D911C91003050E0150711F0EA
:100230000C94220183E911E00E94F709E8E3FAE156
:100240000E94E109A4EAB0E00D911C91003050E059
:10025000150711F00C94340183ED11E00E94F709A9
:10026000E4E4FAE10E94E1090E943206A0EAB0E06B
:100270000D911C91013050E0150711F00C945001C4
:100280008FEB11E00E94F709E0E5FAE10E94E10935
:10029000A8EAB0E00E94DB09E6E5FAE10E94E10984
:1002A000A2EAB0E00D911C91013050E0150711F069
:1002B0000C946A0183E911E00E94F709ECE5FAE188
:1002C0000E94E109A3EBB0E00E94DB09E6E5FAE158
:1002D0000E94E109A4EAB0E00D911C91013050E0C8
:1002E000150711F00C94840183ED11E00E94F709C9
:1002F000E2E6FAE10E94E109AEEBB0E00E94DB0920
:10030000E6E5FAE10E94E1090E945A08939A949A5C
:10031000959ADF9AAA9AC49AC398C2980E94C30574
:10032000A0EAB0E00D911C91003050E0150711F0EB
:100330000C94A2018FEB11E00E94F709ECE2FAE1C4
:100340000E94E109A2EAB0E00D911C91003050E05A
:10035000150711F00C94B40183E911E00E94F7092C
:10036000E8E3FAE10E94E109A4EAB0E00D911C91F2
:10037000003050E0150711F00C94C60183ED11E038
:100380000E94F709E4E4FAE10E94E1090E943206C2
:10039000A0EAB0E00D911C91013050E0150711F07A
:1003A0000C94E2018FEB11E00E94F709E0E5FAE11D
:1003B0000E94E109A8EAB0E00E94DB09E6E5FAE163
:1003C0000E94E109A2EAB0E00D911C91013050E0D9
:1003D000150711F00C94FC0183E911E00E94F70964
:1003E000ECE5FAE10E94E109A3EBB0E00E94DB0931
:1003F000E6E5FAE10E94E109A4EAB0E00D911C9162
:10040000013050E0150711F00C94160283ED11E055
:100410000E94F709E2E6FAE10E94E109AEEBB0E0E2
:100420000E94DB09E6E5FAE10E94E10982990C9459
:100430001B020C94A1000C9484010895C498C39AE3
:10044000C298DF9A939A949A959AAA9A969A979AAA
:100450000E94E8098FE711E00E94F709E8E6FAE157
:100460000E94E1090E94C305A0EAB0E00D911C9131
:10047000003050E0150711F00C9446028FEB11E0AC
:100480000E94F709ECE2FAE10E94E109A2EAB0E079
:100490000D911C91003050E0150711F00C9458029A
:1004A00083E911E00E94F709E8E3FAE10E94E1091B
:1004B000A4EAB0E00D911C91003050E0150711F056
:1004C0000C946A0283ED11E00E94F709E4E4FAE17A
:1004D0000E94E1090E943206A0EAB0E00D911C9151
:1004E000013050E0150711F00C9486028FEB11E0FB
:1004F0000E94F709E0E5FAE10E94E109A8EAB0E00C
:100500000E94DB09E6E5FAE10E94E109A2EAB0E017
:100510000D911C91013050E0150711F00C94A002D0
:1005200083E911E00E94F709ECE5FAE10E94E10994
:10053000A3EBB0E00E94DB09E6E5FAE10E94E109E5
:10054000A4EAB0E00D911C91013050E0150711F0C4
:100550000C94BA0283ED11E00E94F709E2E6FAE199
:100560000E94E109AEEBB0E00E94DB09E6E5FAE1AA
:100570000E94E10980E08093C90280E08093CA0272
:1005800080E08093CB020E945A08A0EAB0E00D916F
:100590001C91013050E0150711F00C94E002A6E622
:1005A000B0E00D911C91053D53E0150718F011F0D6
:1005B0000C94DC020C94DF02939A0C94E002939862
:1005C000A2EAB0E00D911C91013050E0150711F046
:1005D0000C94FB02A8E6B0E00D911C91053D53E0A0
:1005E000150718F011F00C94F7020C94FA02949A83
:1005F0000C94FB029498A4EAB0E00D911C91013098
:1006000050E0150711F00C941603AAE6B0E00D9126
:100610001C91053D53E0150718F011F00C941203DE
:100620000C941503959A0C9416039598A6E6B0E0E1
:100630000D911C91063D53E0150781E008F080E024
:100640008F93A8E6B0E00D911C91063D53E015078D
:1006500081E008F080E09F91892B8F93AAE6B0E0BB
:100660000D911C91063D53E0150781E008F080E0F4
:100670009F91892B882311F40C944103AA980C9420
:100680004203AA9A0E94D70300919B00003011F008
:100690000C94CF03939A949A959AAA9A80E090E04A
:1006A000AEE6B0E08D939C930E94030A0E94E80995
:1006B000AEE6B0E00D911C910F5F1F4FAEE6B0E0CB
:1006C0000D931C930E9432060E945A088FE711E096
:1006D0000E94F709E8E6FAE10E94E109A0EAB0E029
:1006E0000D911C91013050E0150711F00C94880316
:1006F0008FEB11E00E94F709E0E5FAE10E94E109C1
:10070000A8EAB0E00E94DB09E6E5FAE10E94E1090F
:10071000A2EAB0E00D911C91013050E0150711F0F4
:100720000C94A20383E911E00E94F709ECE5FAE1D9
:100730000E94E109A3EBB0E00E94DB09E6E5FAE1E3
:100740000E94E109A4EAB0E00D911C91013050E053
:10075000150711F00C94BC0383ED11E00E94F7091A
:10076000E2E6FAE10E94E109AEEBB0E00E94DB09AB
:10077000E6E5FAE10E94E109E1E0F0E00E94FA0911
:10078000829B0C94C5030C94A100AEE6B0E00D91E1
:100790001C91093050E0150711F00C945803829B0E
:1007A0000C94D4030C94A1000C94C30208950091FE
:1007B0009D00013111F00C940804C49AC39AC29AA6
:1007C0000E94030A0E94E80983E915E00E94F709E4
:1007D000E2E7FAE10E94E10900919D00013111F088
:1007E0000C9406040E945A08AA9893989498959895
:1007F00096989798DF98E1E0F0E00E94FA09829BD2
:100800000C9404040C94A1000C94EC030C94A1002F
:100810000895C498C398C29ADF98939A949A959A27
:10082000AA9A969A0E94E8098FE711E00E94F709B8
:10083000E0E8FAE10E94E1090E94C305A0EAB0E005
:100840000D911C91003050E0150711F00C9430040C
:100850008FEB11E00E94F709ECE2FAE10E94E10956
:10086000A2EAB0E00D911C91003050E0150711F0A4
:100870000C94420483E911E00E94F709E8E3FAE1ED
:100880000E94E109A4EAB0E00D911C91003050E013
:10089000150711F00C94540483ED11E00E94F70940
:1008A000E4E4FAE10E94E1090E943206A0EAB0E025
:1008B0000D911C91013050E0150711F00C9470045B
:1008C0008FEB11E00E94F709E0E5FAE10E94E109EF
:1008D000A8EAB0E00E94DB09E6E5FAE10E94E1093E
:1008E000A2EAB0E00D911C91013050E0150711F023
:1008F0000C948A0483E911E00E94F709ECE5FAE11F
:100900000E94E109A3EBB0E00E94DB09E6E5FAE111
:100910000E94E109A4EAB0E00D911C91013050E081
:10092000150711F00C94A40483ED11E00E94F7095F
:10093000E2E6FAE10E94E109AEEBB0E00E94DB09D9
:10094000E6E5FAE10E94E10980E08093C90280E0D7
:100950008093CA0280E08093CB020E945A08A0EAEA
:10096000B0E00D911C91013050E0150711F00C948E
:10097000CA04A6E6B0E00D911C91053D53E01507B1
:1009800018F011F00C94C6040C94C904939A0C94BA
:10099000CA049398A2EAB0E00D911C91013050E096
:1009A000150711F00C94E504A8E6B0E00D911C9138
:1009B000053D53E0150718F011F00C94E1040C9478
:1009C000E404949A0C94E5049498A4EAB0E00D91A0
:1009D0001C91013050E0150711F00C940005AAE6B7
:1009E000B0E00D911C91053D53E0150718F011F092
:1009F0000C94FC040C94FF04959A0C9400059598B3
:100A0000A2E3B0E00C9103FB81E00EF480E08F9351
:100A1000A2E3B0E00C9104FB81E00EF480E09F9132
:100A2000892B8F93A2E3B0E00C9105FB81E00EF4DB
:100A300080E09F91892B882311F40C942205AA98B9
:100A40000C942305AA9A00919B00003081E009F0E4
:100A500080E08F9300919B000E3181E009F080E0EF
:100A60009F91892B882311F40C94BB05939A949A37
:100A7000959AAA9A80E090E0AEE6B0E08D939C93C0
:100A80000E94030A0E94E809AEE6B0E00D911C91B5
:100A90000F5F1F4FAEE6B0E00D931C930E9432062D
:100AA0000E945A088FE711E00E94F709E0E8FAE196
:100AB0000E94E109A0EAB0E00D911C91013050E0E4
:100AC000150711F00C9474058FEB11E00E94F709E3
:100AD000E0E5FAE10E94E109A8EAB0E00E94DB0942
:100AE000E6E5FAE10E94E109A2EAB0E00D911C916D
:100AF000013050E0150711F00C948E0583E911E0E8
:100B00000E94F709ECE5FAE10E94E109A3EBB0E0ED
:100B10000E94DB09E6E5FAE10E94E109A4EAB0E0FF
:100B20000D911C91013050E0150711F00C94A805AF
:100B300083ED11E00E94F709E2E6FAE10E94E10983
:100B4000AEEBB0E00E94DB09E6E5FAE10E94E109C4
:100B5000E1E0F0E00E94FA09829B0C94B1050C944C
:100B6000A100AEE6B0E00D911C91093050E01507F0
:100B700011F00C944405829B0C94C0050C94A100C8
:100B80000C94AD0408950E943206A6E6B0E00D91E3
:100B90001C91043F51E0150710F40C94DD0581E031
:100BA00090E0A0EAB0E08D939C93E8E8FAE10E941F
:100BB000CB090E94D2090C94E90580E090E0A0EAFC
:100BC000B0E08D939C93ECE8FAE10E94CB090E947F
:100BD000D209A8E6B0E00D911C91043F51E0150741
:100BE00010F40C94010681E090E0A2EAB0E08D934D
:100BF0009C93E0E9FAE10E94CB090E94D2090C948F
:100C00000D0680E090E0A2EAB0E08D939C93E4E9C9
:100C1000FAE10E94CB090E94D209AAE6B0E00D9148
:100C20001C91043F51E0150710F40C94250681E057
:100C300090E0A4EAB0E08D939C93E8E9FAE10E9489
:100C4000CB090E94D2090C94310680E090E0A4EA1E
:100C5000B0E08D939C93ECE9FAE10E94CB090E94ED
:100C6000D2090895379A80E090E0A6E6B0E08D932F
:100C70009C9380E090E0A8E6B0E08D939C9380E0A8
:100C800090E0AAE6B0E08D939C9380E090E0ACE623
:100C9000B0E08D939C9307B1007E006007B90E947D
:100CA000890BA0E6B0E08D939C93A6E6B0E00D9191
:100CB0001C91A0E6B0E04D915C91040F151FA6E6D3
:100CC000B0E00D931C93ACE6B0E00E948709ACE65F
:100CD000B0E00D911C910F3050E0150711F00C940D
:100CE0004B06A6E6B0E00D911C91ACE6B0E04D914C
:100CF0005C910E94B109A6E6B0E04D935C93E4E0FC
:100D0000FAE10E949E0CE6E6F0E0D190E080FF243C
:100D100000270E94380C0E94600CEDE0F0E0A0E794
:100D2000B0E00E94F00BA4E3B7E0AF93BF93E0E71D
:100D3000F0E00E94140C0E94A60A11E002E0BF91AC
:100D4000AF910E94A30BE4E3F7E0A8EAB0E00E94B1
:100D5000EB0B80E090E0ACE6B0E08D939C9307B1A4
:100D6000007E026007B90E94890BA2E6B0E08D9375
:100D70009C93A8E6B0E00D911C91A2E6B0E04D91E5
:100D80005C91040F151FA8E6B0E00D931C93ACE630
:100D9000B0E00E948709ACE6B0E00D911C910F30E5
:100DA00050E0150711F00C94AF06A8E6B0E00D91E5
:100DB0001C91ACE6B0E04D915C910E94B109A8E6AF
:100DC000B0E04D935C93E4E0FAE10E949E0CE8E60B
:100DD000F0E0D190E080FF2400270E94380C0E94B0
:100DE000600CEDE0F0E0A4E7B0E00E94F00BA4E3BB
:100DF000B7E0AF93BF93E4E7F0E00E94140C0E94C9
:100E0000A60A11E002E0BF91AF910E94A30BE4E3B8
:100E1000F7E0A3EBB0E00E94EB0B80E090E0ACE6E3
:100E2000B0E08D939C9307B1007E016007B90E94EA
:100E3000890BA4E6B0E08D939C93AAE6B0E00D91F7
:100E40001C91A4E6B0E04D915C91040F151FAAE639
:100E5000B0E00D931C93ACE6B0E00E948709ACE6CD
:100E6000B0E00D911C910F3050E0150711F00C947B
:100E70001307AAE6B0E00D911C91ACE6B0E04D91ED
:100E80005C910E94B109AAE6B0E04D935C93E4E066
:100E9000FAE10E949E0CEAE6F0E0D190E080FF24A7
:100EA00000270E94380C0E94600CEDE0F0E0A8E7FB
:100EB000B0E00E94F00BA4E3B7E0AF93BF93E8E784
:100EC000F0E00E94140C0E94A60A11E002E0BF911B
:100ED000AF910E94A30BE4E3F7E0AEEBB0E00E9419
:100EE000EB0B37980895379A80E090E0A2E8B0E0E5
:100EF0008D939C9380E090E0A4E8B0E08D939C9368
:100F000080E090E0A6E8B0E08D939C9380E090E0D4
:100F1000A8E8B0E08D939C9307B1007E046007B908
:100F20000E94890BACE7B0E08D939C93A2E8B0E0FF
:100F30000D911C91ACE7B0E04D915C91040F151F31
:100F4000A2E8B0E00D931C93A8E8B0E00E948709E6
:100F5000A8E8B0E00D911C91053050E0150711F0A4
:100F60000C948C07A2E8B0E00D911C91A8E8B0E0C9
:100F70004D915C910E94B109A2E8B0E04D935C9361
:100F8000E2E8F0E0D190E080FF2400270E94380CD6
:100F9000AAE8B0E00E94190C80E090E0A8E8B0E078
:100FA0008D939C9307B1007E056007B90E94890B61
:100FB000AEE7B0E08D939C93A4E8B0E00D911C9156
:100FC000AEE7B0E04D915C91040F151FA4E8B0E0CE
:100FD0000D931C93A8E8B0E00E948709A8E8B0E050
:100FE0000D911C91053050E0150711F00C94D207BB
:100FF000A4E8B0E00D911C91A8E8B0E04D915C919F
:101000000E94B109A4E8B0E04D935C93E4E8F0E0FD
:10101000D190E080FF2400270E94380CAEE8B0E0B9
:101020000E94190C80E090E0A8E8B0E08D939C93BA
:1010300007B1007E036007B90E94890BA0E8B0E009
:101040008D939C93A6E8B0E00D911C91A0E8B0E0D0
:101050004D915C91040F151FA6E8B0E00D931C9311
:10106000A8E8B0E00E948709A8E8B0E00D911C91C3
:10107000053050E0150711F00C941808A6E8B0E010
:101080000D911C91A8E8B0E04D915C910E94B109CE
:10109000A6E8B0E04D935C93E6E8F0E0D190E08004
:1010A000FF2400270E94380CA2E9B0E00E94190C2E
:1010B000379808950E94B00C10919E000E94C80CB1
:1010C00010E00E94C80C0E94B00C10919F000E947A
:1010D000C80C0E94E70CABE9B0E01C930E94E70C3F
:1010E000ACE9B0E01C930E94E70CADE9B0E01C93C2
:1010F0000E94E70CA7E9B0E01C930E94E70CA8E966
:10110000B0E01C930E94E70CA9E9B0E01C930E9498
:10111000E50CAAE9B0E01C930E94BF0C8FE710E138
:101120000E94F70980919D00A4E3B7E00E94720A33
:101130000E94D909E0EAFAE10E94E10980919C004D
:10114000A4E3B7E00E94720A0E94D9099091970027
:101150000E94840AA7E9B0E08C93909198000E94C5
:10116000840AA8E9B0E08C93909199000E94840AC7
:10117000A9E9B0E08C9390919A000E94840AAAE9B0
:10118000B0E08C9390919D000E94840AADE9B0E09C
:101190008C9390919C000E94840AACE9B0E08C93FF
:1011A00090919B000E94840AABE9B0E08C9300917F
:1011B0009D00003181E009F080E08F9300919C0058
:1011C000083381E009F080E09F9189238F9300919B
:1011D0009B000E3181E009F080E09F9189238F937D
:1011E000ACECB2E00D911C91003050E0150781E0AD
:1011F00009F080E09F918923882311F40C94080959
:1012000081E090E0ACECB2E08D939C930E942209C7
:1012100000919D00003181E009F080E08F93009102
:101220009C00093381E009F080E09F9189238823A5
:1012300011F40C94210980E090E0ACECB2E08D93C5
:101240009C93089587E380939C0080919B000E946B
:101250007D0AABE9B0E08C9380919C000E947D0AEE
:10126000ACE9B0E08C9380919D000E947D0AADE9CD
:10127000B0E08C930E94B00C10919E000E94C80CAC
:1012800010E00E94C80C10919B000E94C80C1091A5
:101290009C000E94C80C10919D000E94C80C0E94E6
:1012A000BF0C0E945A080895809198000E947D0A00
:1012B000A8E9B0E08C93809199000E947D0AA9E989
:1012C000B0E08C9380919A000E947D0AAAE9B0E078
:1012D0008C930E94B00C10919E000E94C80C13E0E9
:1012E0000E94C80C109197000E94C80C10919800A1
:1012F0000E94C80C109199000E94C80C10919A008D
:101300000E94C80C0E94BF0C0895F894FFCFED9185
:10131000FC91EF5FFF4FFC93EE93089500FC10D01B
:10132000089503D01ED001F8F9CF0024E89457FFA8
:1013300002C009D0689400F80BD010F80124089579
:1013400002D009D00895509540954F5F5F4F0895A2
:10135000E89417FF0895009510950F5F1F4F68944C
:101360000895352F242FE894452B11F4689408959F
:10137000512F402F0027112780E1440F551F001FD8
:10138000111F021B130B416018F4020F131F4E7F35
:101390008A9599F708950E94920B802D11F005D03F
:1013A000FACF08958DE001D08AE05D9BFECF8CB925
:1013B0000895A4E3B7E08D91882311F06CD0FBCFA2
:1013C00008950E94920B802D11F065D0FACF0895F8
:1013D00081E067D015D080E864C08FE7213039F014
:1013E0008FEB223021F083E9233009F083ED810F68
:1013F0000C94510A88EE93E09AD03197D9F708956A
:1014000083E0992794C08AEF90E00E94970AA69AF9
:10141000A59AA49AA79AB89AB99AC19885E090E03B
:101420000E94970AC098AE98AD98AC9AAF9AC09AAD
:10143000EF93FF93E0E6F0E00E948B0AFF91EF91BB
:10144000C09872D0C09AEF93FF93E0E6F0E00E945C
:101450008B0AFF91EF91C09867D0C09AEF93FF93EA
:10146000E0E6F0E00E948B0AFF91EF91C0985CD01B
:10147000AF98C09AEF93FF93E0E6F0E00E948B0AEA
:10148000FF91EF91C09850D088E20BD08EE009D048
:1014900086E007D00895C19A829505D004D044D043
:1014A0000895C198F9CF859510F4AF9A01C0AF980F
:1014B000859510F4AC9A01C0AC98859510F4AD9A5E
:1014C00001C0AD98859510F4AE9A01C0AE98C09A4F
:1014D000EF93FF93E0E6F0E00E948B0AFF91EF911B
:1014E000C0980895982F82958F70805D8D939F701E
:1014F000905D9D9388278C9308954AE0082F0E9461
:10150000F60B0295802B0895892F8F70905110F063
:10151000865FFCCF08953197F1F70895689462F8DB
:101520000895E89462F8089581E090E000C0EF9398
:10153000FF93EE27E82BE92B31F0E8EEF3E031974B
:10154000F1F70197D1F7FF91EF9108958DE207FD33
:101550008D938F2D881F802F881F8F57082F689499
:10156000F7F8802F87FF15C080958395082F80E3BB
:101570008D938EE28D93802F815228F080E38D939E
:1015800099279C93089544270A95802F09F196D0B6
:101590001FC0805230F09EE49D9381E48D939D9313
:1015A000EFCF4427DF92EF92FF920F938FE1801BE2
:1015B00011F0082F83D089D09EE29D930F91FF9068
:1015C000EF90DF9044270395003209F4D7CF2BD05A
:1015D0003F93ECE5F6E138E12F2D1E2D0D2DFF2474
:1015E000EE24DD244427000F111F221FA8F42F92A0
:1015F0003F920E94920B102C0E94920B202C0E9472
:10160000920B302C0E94920B3197410DD21CE31C9F
:10161000F01C3F902F9001C0339631963A9519F700
:101620003F9107D0AFCFDD0CEE1CFF1C0A95D9F718
:101630000895002719E058D08F93802B11F003955F
:1016400001C08F911A95B9F7802F882309F496CF9E
:101650008F91805D8D930A95D9F792CF0065CD1D4E
:1016600080B2E60E40597307A0ACB90350D6DC0136
:10167000286BEE0094357700CA9A3B0065CD1D00BB
:10168000B2E60E0059730700ACB90300D6DC0100C6
:101690006BEE0000357700009A3B0000CD1D000086
:1016A000E60E000073070000B9030000DC01000033
:1016B000EE000000770000003B000000F694E79485
:1016C000D79447950A95D1F7089500270DD08F93A9
:1016D00003958F2D8E298D29842BC1F78F91805DE5
:1016E0008D930A95D9F74CCF1F930F93002710E2E3
:1016F000440FDD1CEE1CFF1C001F802F9AE0890B9D
:1017000010F0082F43951A9599F7802F0F911F918C
:101710000895369A3699FECF369A3699FECF84B11F
:1017200095B10895C89531960020089599278D9117
:1017300093958823E1F7939511968C9311978E9149
:101740009A95D1F70895EA2FFB2F00244C918D91A3
:1017500003948E32E1F711248D9113948823E1F7DD
:101760001A94101640F41197202F2119239580E325
:101770008D932A95E9F7113039F59927AE2FBF2FB0
:10178000A00DB91FA00FB91F8C919C93853308F44D
:1017900021C031E08E918E32E9F38D3241F0830F1A
:1017A0008A3319F480E331E001C033278C93AE17FC
:1017B00089F7332341F0AE2FBF2FB8DF81E34D32DD
:1017C00009F43196808308958827E00DF81FE00F13
:1017D000F81F8083089581918D938823E1F7089500
:1017E00094E081918D939A95E1F70895FF93881B7A
:1017F000F9E0001FFA9511F4FF910895881F841BEA
:1018000018F4840F8894F5CF0894F3CFB7FE0895A9
:1018100090E8B91611F4D0FE08959FEFD91AE90A9D
:10182000F90A09F403950895D190E190F19001919E
:101830000895DD92ED92FD920C930895652F90E846
:10184000440F551F5927990F47956078102F90E83E
:10185000FF0C001F0927990FF7941078003808959E
:10186000FF0C90E89027110F9795F794092F089592
:101870001127BD2CDE2CEF2CF02E0EE1FF2039F4C9
:10188000FE2CED2CDB2CBB240850C2F710C032F02C
:101890000A95BB0CDD1CEE1CFF1CF9CFB7DFE0CFB7
:1018A0009FE7092FF92A9FEFD92EE92E0895DD240D
:1018B000EE24FF240027112708950FE79FEFF2CFB2
:1018C000BDDFD9F05038C9F016270058952F905831
:1018D0000894091F12F418F40EC008F00EC00FD0BF
:1018E000FF202AF0BB0CDD1CEE1CFF1C02C0039580
:1018F00013F08CDFB5CF0C94500C0C94570C9F92C6
:10190000FF92EF928D2DFF24EE24DD24BB2493E083
:10191000849F1001829FB00CD11CE21CF31C839F9A
:10192000D00CE11C2224F21C9A9531F0BD2CDE2C47
:10193000EF2CFF248F91ECCF9F9008950E94920B83
:10194000202D0E94920B302D0E94920B402D0E9460
:10195000920B502D0895A198A098A998A898089541
:10196000A09AA19803D0A09801D0A19AEF93FF93D9
:10197000E1E0F0E00E948B0AFF91EF910895A09AB8
:10198000A19AF4DFA098989BFECFF0DFA198EECF4C
:101990000894111F01C0110F69F0A09A18F40000FB
:1019A000A19802C0A19A00C0E1DFA098989BFECF49
:1019B000DDDFF1CFA09AA198D9DFA098989BFECF48
:1019C000E8949999689462F8D1CF089401C08894FA
:1019D000331F11E0A09AA198C9DFA098989BFECF71
:1019E000C5DF889499990894111FA0F7A09A37959C
:1019F00010F4A19801C0A19AB9DFA098989BFECFDE
:101A0000B5DF08956666663C57696C6C6B6F6D6DEB
:101A1000656E000057617274652E2E2E00005565AC
:101A200062657277616368756E67000041313A20C4
:101A30002D2D2D202020000041323A202D2D2D204B
:101A40002020000041333A202D2D2D2020200000A1
:101A500041313A20000020562020200041323A2017
:101A6000000041333A200000457268616C74756E65
:101A700067005A77616E67736C6164756E6700000A
:101A80004C6164756E6700004131790041316E0030
:101A90004132790041326E004133790041336E00AA
:021AA0003A000A
:00000001FF
